:020000040800F2
:1000000000000120C5020008CB020008CF02000852
:1000100041030008450300088D03000800000000AC
:10002000000000000000000000000000D5030008F0
:10003000D903000800000000DD030008410C00089F
:10004000F1030008F1030008F1030008F1030008C0
:10005000F1030008F1030008F1030008F1030008B0
:10006000F1030008F1030008F1030008F1030008A0
:10007000F1030008F1030008F1030008F103000890
:10008000F1030008F1030008F1030008000000007C
:10009000000000000000000000000000F103000864
:1000A000F1030008F1030008F1030008F103000860
:1000B000F1030008F1030008F1030008F103000850
:1000C000F1030008F1030008F1030008F103000840
:1000D000F1030008F1030008F1030008000000002C
:1000E000F1030008F1030008F1030008000000001C
:1000F000000000000000000000000000F103000804
:1001000000000000F1030008F1030008F1030008FB
:1001100000000000000000000000000000000000DF
:10012000F1030008F1030008F1030008F1030008DF
:10013000F1030008000000000000000000000000C3
:10014000000000000000000000000000F1030008B3
:10015000F1030008F1030008F1030008F1030008AF
:10016000F1030008F1030008000000000000000097
:10017000000000000000000000000000000000007F
:1001800000000000F1030008000000000000000073
:10019000F103000800B583B000F0BAF9384B394AD2
:1001A0001360394A1360394900E02146384B9942BF
:1001B0000BD20A684B6801F10C0488689842F4D9A4
:1001C0001168196004330432F8E72E4B1A68314B7A
:1001D0009A4200D0FEE72C4B1A682F4B9A42F9D175
:1001E000274B2E4A13602E4A13602E4B05E0002049
:1001F000106004329342FAD80B462B4A934204D241
:10020000194651F8082B5B68F4E7244B1B6813B9B7
:10021000234B1B6803B1FEE700F086F9694601A88D
:1002200000F022F9214C224BE41AA4100025AC4224
:1002300014DC204C204BE41AA4100025AC4213DC43
:100240000099019800F0D4FD05461C4C1C4BE41AA3
:10025000A410002C0EDC284600F0E2F8144B53F8F2
:10026000253098470135E2E7134B53F8253098477E
:100270000135E3E7013C124B53F824309847E8E797
:10028000BABADECA0000002074000020F40300089F
:100290000C04000878563412325476987800002006
:1002A000180100200C0400081C0400081C040008AD
:1002B0001C0400081C0400081C0400081C0400089E
:1002C0001C04000808B5FFF765FF00BEFEE71EF03E
:1002D000040F0CBFEFF30880EFF309807146414A29
:1002E00010472DE9F04182B004468846124B5E6B00
:1002F0009F6B9D6A1B6B13F0020F03D00E4BDB6AE2
:10030000002B0CDB0D4800F0B7F8CDF800803B4621
:1003100032462946204600F00BF900BEFEE74BF6B8
:10032000AB6100F07FF90028ECD0034B4FF00042A6
:10033000DA6202B0BDE8F08100ED00E024180008A8
:1003400000BEFEE71EF0040F0CBFEFF30880EFF3D2
:1003500009807146244A10472DE9F04182B00446D5
:100360008846084B5E6B9F6B9D6A074800F084F8D7
:10037000CDF800803B4632462946204600F0D8F8AA
:1003800000BEFEE700ED00E0341800081EF0040F88
:100390000CBFEFF30880EFF309807146134A104752
:1003A0002DE9F04182B004468846084B5E6B9F6B96
:1003B0009D6A074800F060F8CDF800803B46324661
:1003C0002946204600F0B4F800BEFEE700ED00E04C
:1003D0004018000800BEFEE700BEFEE700BEFEE7D4
:1003E00070470000E302000859030008A103000859
:0403F00000BEFEE766
:1003F40094B80008000000207800002094B8000899
:100404000000001000000010780000201C010020F3
:080414000000001000000010C0
:10042000FEE7000008B503460C4A12685AB10B4AB1
:100430001068033323F003030344094A934206D8A8
:10044000064A136008BD054A06491160EFE700F04F
:10045000E7FC0C2303604FF0FF30F3E77C00002043
:1004600000FC00201C01002001230360014B0B60F5
:10047000704700BF040000200FB400B583B004AB88
:1004800053F8042B01938021064800F0FBFC002860
:1004900003DD0146034800F037F803B05DF804EBD4
:1004A00004B07047840000202DE9F04385B0044675
:1004B0000F4643560BB10E461EE004252846214642
:1004C000ABBE0446384605B0BDE8F08314F9011B05
:1004D00004AA1A4402F8101C0133AB42F6D304AA52
:1004E0001344002203F8102C4FF00408E94640465C
:1004F0004946ABBE8046761B002EE3D03546102E13
:1005000028BF10250023E8E708B5FFF7CDFF08BD99
:1005100008B500F097F8024A024B9A6008BD00BF88
:100520000000000800ED00E008B500F0ABF808BDE1
:10053000F8B504460D4617461E462748FFF79CFFB0
:1005400021682648FFF798FF61682548FFF794FF68
:10055000A1682448FFF790FFE1682348FFF78CFF6C
:1005600021692248FFF788FF61692148FFF784FF6E
:10057000A1692048FFF780FFE1691F48FFF77CFF72
:100580001E48FFF779FF29461D48FFF775FF1D4CF0
:10059000E16A1D48FFF770FF216B1C48FFF76CFFF5
:1005A000E16B1B48FFF768FF15F0800F0AD115F4C7
:1005B000004F0CD11748FFF75FFF06991648FFF769
:1005C0005BFFF8BD39461548FFF756FFEFE73146A8
:1005D0001348FFF751FFEDE7081700081817000848
:1005E000281700083817000848170008581700088F
:1005F000681700087817000888170008981700087F
:10060000A417000800ED00E0B4170008C4170008A4
:10061000D4170008041800080C180008E417000894
:10062000F417000883691A888A4201D000207047B5
:100630000268033A012A03D802338361012070471C
:10064000002070470C4B1A6842F001021A6000212A
:1006500099601A6822F0847222F480321A60074A84
:100660005A601A6822F480221A60D960044B4FF055
:1006700000629A60704700BF0038024010300024CA
:1006800000ED00E0224B9B6803F00C03042B14D018
:10069000082B16D01BB11F4B1F4A1A6002E01D4BDE
:1006A0001D4A1A601A4B9B68C3F303131B4AD15CA3
:1006B000184A1368CB4013607047164B184A1A60EB
:1006C000F0E7134B5A685B6803F03F0312F4800FA6
:1006D00013D0134AB2FBF3F20D4B5B68C3F38813DC
:1006E00003FB02F30A4A5268C2F30142013252008C
:1006F000B3FBF2F3074A1360D4E7074AB2FBF3F205
:10070000034B5B68C3F3881303FB02F3EAE700BF04
:10071000003802400C0000200024F40050180008AB
:1007200040787D0110B4012847D020B1022800F0A4
:10073000868010BC7047032AFBD8DFE802F0021263
:100740002130614B18684900012202FA01F420EAC5
:1007500004001860186811448A4020EA02021A60F6
:10076000E7E7594B18684900012202FA01F42043D7
:100770001860186811448A4020EA02021A60D8E71B
:10078000514B18684900012202FA01F420EA0400E2
:100790001860186811448A4002431A60C9E74A4B3E
:1007A00018684900012202FA01F420431860186811
:1007B00011448A4002431A60BBE7032AB9D8DFE834
:1007C00002F002122130414B18684900012202FA5E
:1007D00001F420EA04001860186811448A4020EAF5
:1007E00002021A60A5E7394B18684900012202FA93
:1007F00001F420431860186811448A4020EA02027C
:100800001A6096E7314B18684900012202FA01F498
:1008100020EA04001860186811448A4002431A60F4
:1008200087E72A4B18684900012202FA01F42043A5
:100830001860186811448A4002431A6079E7032A55
:100840003FF677AFDFE802F002122130204B186844
:100850004900012202FA01F420EA04001860186835
:1008600011448A4020EA02021A6062E7184B1868B5
:100870004900012202FA01F420431860186811446B
:100880008A4020EA02021A6053E7114B18684900B7
:10089000012202FA01F420EA0400186018681144E9
:1008A0008A4002431A6044E7094B18684900012254
:1008B00002FA01F4204318601868114402FA01F1A9
:1008C0000143196035E700BF000002400004024008
:1008D00000080240012807D010B1022808D0704754
:1008E000054B1A681A607047044B1A681A60704703
:1008F000034B1A681A60704708000240080402405F
:1009000008080240012816D010B1022826D07047EE
:1009100042B1012A34D11B48036802FA01F119439C
:100920000160704717480368012202FA01F123EAC7
:1009300001010160704742B1012A21D112480368C8
:1009400002FA01F11943016070470F480368012260
:1009500002FA01F123EA01010160704742B1012A64
:100960000ED10A48036802FA01F119430160704789
:1009700006480368012202FA01F123EA010101603D
:10098000704700BF140002401404024014080240E3
:1009900010B4012837D018B1022867D010BC7047B6
:1009A000012A21D082B1022AF8D13A4B18684900B5
:1009B000012202FA01F420EA0400186018681144C8
:1009C0008A4002431A60E9E7324B18684900012265
:1009D00002FA01F420EA04001860186811448A4001
:1009E00020EA02021A60D9E72A4B1868490001225E
:1009F00002FA01F420431860186811448A4020EA82
:100A000002021A60CAE7012A21D082B1022AC5D1A6
:100A1000214B18684900012202FA01F420EA04007F
:100A20001860186811448A4002431A60B6E71A4BEE
:100A300018684900012202FA01F420EA0400186053
:100A4000186811448A4020EA02021A60A6E7124B95
:100A500018684900012202FA01F42043186018685E
:100A600011448A4020EA02021A6097E74AB1012A3B
:100A700094D10A480368012202FA01F11943016086
:100A80008CE706480368012202FA01F123EA01011A
:100A9000016083E70C0002400C0402400C08024095
:100AA00020BB30B4072912D90F291DD8104803687C
:100AB0008D000F24AC4023EA040303600468A1F115
:100AC00008039B0002FA03F1214301600CE0094B8B
:100AD000186889000F248C4020EA04001860186808
:100AE00002FA01F10143196030BC7047704700BF42
:100AF00024000240200002400B4B1A6842F0010221
:100B00001A609A6822F001029A609A6822F0020242
:100B10009A60054B1B6813F0020FFAD0024A9368E3
:100B200043F080039360704700380240032822D8C6
:100B3000DFE800F0020A121A0F48036B012202FAE2
:100B400001F11943016370470B48436B012202FA1C
:100B500001F11943416370470748036C012202FA0F
:100B600001F11943016470470348436C012202FA02
:100B700001F11943416470470038024008B5022270
:100B800007210020FFF7CEFD022205210020FFF7FC
:100B9000C9FD002207211046FFF79CFE0022052117
:100BA0001046FFF797FE052207210020FFF778FF88
:100BB000052211460020FFF773FF022204210020C6
:100BC000FFF7B0FD012204210020FFF7E1FE05221E
:100BD00004210020FFF764FF024B40F247321A6005
:100BE00008BD00BF00300140054BD860044B9B6836
:100BF00013F0800FFAD1024BD868C0B2704700BF23
:100C000000300140014B00221A60704710E000E004
:100C10000A4B58601A6842F001021A6000E000BFF7
:100C2000064B1B6813F4803FF9D0044B1A6822F07E
:100C300001021A6000225A609A60704710E000E0DA
:100C400008B50B4B1B78022B05D00A4B1B68984745
:100C5000094B1B6808BD084B1A6822F002021A6093
:100C60001A6822F001021A6000225A609A60ECE7CA
:100C7000040100200801002010E000E010B582B05F
:100C80000446012200210846FFF73CFE0DF1070152
:100C90002046FFF7A9FF02B010BD10B582B0044690
:100CA000002211461046FFF72DFE0DF107012046E8
:100CB000FFF79AFF02B010BD08B5012200210846D7
:100CC000FFF730FD012211460020FFF72BFD012226
:100CD00011460020FFF726FD002211461046FFF7BF
:100CE000F9FD002201211046FFF7F4FD0022012149
:100CF0001046FFF7EFFD012211460020FFF702FE2C
:100D00006420FFF785FF002201211046FFF7FAFD5E
:100D10000120FFF77DFF012211460020FFF7F2FDC1
:100D20006420FFF775FF002201211046FFF7EAFD5E
:100D30006420FFF76DFF012211460020FFF7E2FD5E
:100D40000948FFF765FF1120FFF7A7FF0748FFF7E6
:100D50005FFF3A20FFF7A1FF0520FFF78FFF292053
:100D6000FFF79BFF08BD00BFC0D40100F04902009F
:100D7000F8B507460E4615461C462A20FFF78DFF9C
:100D80000020FFF77BFF3846FFF778FF0020FFF7D2
:100D900075FF3046FFF772FF2B20FFF77EFF002024
:100DA000FFF76CFF2846FFF769FF0020FFF766FF9B
:100DB0002046FFF763FFF8BD38B505469F230022A4
:100DC0007F211046FFF7D4FF2C20FFF766FF002499
:100DD0000AE035F81400000AFFF750FF15F8140078
:100DE000FFF74CFF0134A4B2B4F5A04FF1D938BDE0
:100DF00008B5FFF781FE00210846FFF797FE0C219A
:100E00000320FFF793FEFFF7FDFEFFF7B7FEFFF7A6
:100E100053FF0248FFF7D0FFFEE700BF601800084D
:100E2000014B1868704700BF1000002030B5141E39
:100E300005469BB0184605DA8B232B604FF0FF3038
:100E40001BB030BD4FF40273ADF80C3014BF04F189
:100E5000FF332346029305934FF6FF7300910491ED
:100E6000ADF80E3002461E9B6946284600F072F827
:100E7000431CBCBF8B232B60002CE1D0009B0022C5
:100E80001A70DDE707B5009313460A46014603488A
:100E90000068FFF7CBFF03B05DF804FB10000020F3
:100EA0002DE9F0478E689E4282460C469046994650
:100EB00037D88A8912F4906F31D0256809696F1A82
:100EC0006569022305EB450595FBF3F509F101037F
:100ED0003B449D4238BF1D46530530D5294600F09E
:100EE00079FB064650B90C23CAF80030A38943F0B9
:100EF0004003A3814FF0FF30BDE8F0873A462169F7
:100F000000F0F6FAA38923F4906343F08003A381F1
:100F1000266165613E44ED1B2660A5604E464E4548
:100F200000D94E4632464146206800F0ECFAA368EC
:100F30009B1BA36023681E4426600020DCE72A4632
:100F400000F0A2FB06460028E2D12169504600F0DD
:100F5000F3FAC8E72DE9F04F9DB0804603938B89E3
:100F60001D060C4616460FD50B696BB9402100F0E3
:100F700031FB2060206128B90C23C8F800304FF005
:100F8000FF30C7E0402363610023099320238DF8DD
:100F9000293030238DF82A304FF0010B37463D467B
:100FA00015F8013B0BB1252B3ED1B7EB060A0BD050
:100FB0005346324621464046FFF772FF013000F0AB
:100FC000A480099B534409933B78002B00F09D803B
:100FD00000234FF0FF32CDE90523049307938DF8EA
:100FE00053301A932F46052217F8011B4F4800F083
:100FF0002FFA049BD0B9D90644BF20228DF8532084
:101000001A0744BF2B228DF853202A782A2A15D09C
:10101000079A2F4600200A25394611F8013B303B3C
:10102000092B4DD9B8B10FE02F46B8E73F4A801AD7
:101030000BFA00F0184304903D46D3E7039A111DC4
:1010400012680391002A01DB079204E0524243F048
:101050000203079204933B782E2B0CD17B782A2B2A
:1010600033D1039B1A1D1B680392002BB8BF4FF0AE
:10107000FF33023705932E4D39780322284600F0BE
:10108000E7F938B14023401B03FA00F0049B034307
:1010900001370493397827488DF8281006227E1CE2
:1010A00000F0D6F9002838D0234B13BB039B07333D
:1010B00023F0070308330393099B4B4409936DE71F
:1010C00005FB023201200F46A6E7002301370593F6
:1010D00019460A25384610F8012B303A092A03D957
:1010E000002BC8D00591C6E705FB01210123074667
:1010F000F0E703AB00932246104B04A94046AFF340
:101100000080B0F1FF3F8146D6D1A3895B063FF551
:1011100036AF09981DB0BDE8F08F03AB00932246AF
:10112000064B04A9404600F081F8EAE760B80008E1
:1011300066B800086AB8000800000000A10E0008A8
:101140002DE9F04791461F468A680B69DDF820803B
:101150009342B8BF1346C9F8003091F843200646C1
:101160000C4612B10133C9F800302368990642BF1A
:10117000D9F800300233C9F80030256815F00605AB
:1011800007D104F1190AE368D9F800209B1AAB4291
:1011900028DC94F843302268003318BF01239206FC
:1011A0002DD404F1430239463046C047013020D0E7
:1011B0002368E568D9F8002003F00603042B08BF74
:1011C000AD1AA36822690CBF25EAE5750025934294
:1011D000C4BF9B1AED184FF000091A344D451AD1BF
:1011E000002008E00123524639463046C04701300E
:1011F00003D14FF0FF30BDE8F0870135C3E7E118B8
:101200005A1C302081F84300224494F8451082F89B
:1012100043100233C5E70123224639463046C04712
:101220000130E6D009F10109D8E700002DE9F043CB
:1012300001F1430C0C46097E85B06E29174606461F
:1012400098460C9A00F0B38022D8632936D00AD889
:10125000002900F0B980582900F0838004F142058C
:1012600084F8421032E0642901D06929F6D120685F
:101270001368050603F104012AD51B681160002BD1
:1012800003DA2D225B4284F843206F480A2239E0BA
:10129000732900F09D8008D86F2920D07029DDD1F6
:1012A000236843F02003236003E0752917D07829D1
:1012B000D4D1782384F84530644855E01368191D6B
:1012C0001B68116004F1420584F8423001238CE070
:1012D0001B68116010F0400F18BF1BB2CFE71368F6
:1012E0002568181D1060280601D51B6802E06806F5
:1012F000FBD51B8854486F2914BF0A2208220021FD
:1013000084F843106568A560002DC0F295802168BF
:1013100021F004012160002B3DD1002D40F08E8092
:101320006546082A0BD12368DB0708D52369626864
:101330009A42DEBF302305F8013C05F1FF35ACEBE6
:1013400005032361CDF800803B4603AA21463046C1
:10135000FFF7F6FE01304DD14FF0FF3005B0BDE88C
:10136000F083394884F84510136821681D1D1B68F7
:1013700015600A060BD5CA0744BF41F02001216061
:101380001BB9226822F0200222601022B7E74D0626
:1013900048BF9BB2EFE76546B3FBF2F102FB1133A6
:1013A000C35C05F8013D0B460029F5D1B9E7136888
:1013B00025686169181D106028061B6801D5196031
:1013C00002E06A06FBD51980002323616546B9E770
:1013D0001368191D11601D6862680021284600F01D
:1013E00037F808B1401B606063682361002384F80C
:1013F0004330A7E723692A4639463046C0470130C3
:10140000AAD023689B0713D4E068039B9842B8BF17
:101410001846A3E701234A4639463046C047013003
:101420009AD00135E368039A9B1AAB42F2DCEBE7F2
:10143000002504F11909F5E7002BACD1037884F8F5
:10144000423004F142056CE771B8000882B8000828
:1014500001F0FF01102A2BDB10F0070F08D010F865
:10146000013B013A8B422DD010F0070F42B3F6D169
:10147000F0B441EA012141EA014122F007047FF082
:1014800000070023F0E80256083C85EA010586EAD9
:10149000010685FA47F5A3FA87F586FA47F6A5FA15
:1014A00087F68EB9EED1F0BC01F0FF0102F0070221
:1014B00032B110F8013B013A83EA010313B1F8D1CC
:1014C0000020704701387047002D06BF35460338AD
:1014D000073815F0010F07D1013015F4807F02BFE6
:1014E000013015F4C03F0130F0BC0138704700BF37
:1014F00010B5431E0A44914200D110BD11F8014BB2
:1015000003F8014FF7E7884210B501EB020307D853
:10151000421E99420AD011F8014B02F8014FF8E738
:101520008342F5D98118D21AD34200D110BD13F8E5
:10153000014D01F8014DF7E738B50546002945D0C2
:1015400051F8043C0C1F002BB8BFE41800F0D2F88F
:101550001F4A1368104633B9636014602846BDE81B
:10156000384000F0C8B8A3420CD9216862189342F1
:1015700004BF1A685B68636004BF5218226004608D
:10158000ECE713465A680AB1A242FAD9196858180A
:10159000A0420BD120680144581882421960DDD165
:1015A000106852685A6001441960D7E702D90C23C9
:1015B0002B60D3E7206821188A4204BF1168526863
:1015C000626004BF091821605C60C7E738BD00BFD6
:1015D0000C01002070B5CD1C25F0030508350C2D3D
:1015E00038BF0C25002D064601DBA94203D90C2388
:1015F0003360002070BD00F07DF8214A1468214658
:1016000091B9204C23681BB9304600F063F8206084
:101610002946304600F05EF8431C24D10C23336089
:10162000304600F068F8E4E70B685B1B18D40B2B1E
:101630000FD90B60CD50CC18304600F05CF804F1A7
:101640000B00231D20F00700C31AD3D05A42E250EA
:10165000D0E78C424B6816BF636013600C46EBE723
:101660000C464968CCE7C41C24F00304A04205D012
:10167000211A304600F02EF80130CFD02560DBE78C
:101680000C01002010010020F8B5074614460E4654
:1016900021B91146BDE8F840FFF79CBF22B9FFF71A
:1016A0004BFF25462846F8BD00F026F8A0420FD291
:1016B00021463846FFF78EFF05460028F2D0314616
:1016C0002246FFF715FF31463846FFF735FFE9E7B9
:1016D0003546E7E738B5064C002305460846236043
:1016E000FEF7A0FE431C02D1236803B12B6038BD76
:1016F000140100207047704751F8043C181F002B5C
:10170000BCBF0B58C0187047537461636B2066727E
:10171000616D653A0A000000205230203D202025EE
:101720003038580A00000000205231203D2020258A
:101730003038580A00000000205232203D20202579
:101740003038580A00000000205233203D20202568
:101750003038580A0000000020523132203D202548
:101760003038580A00000000204C52203D2020252F
:101770003038580A00000000205043203D2020252A
:101780003038580A0000000020505352203D2025D8
:101790003038580A000000004653522F4641523A52
:1017A0000A0000002043465352203D2020253038B7
:1017B000580A00002048465352203D20202530384A
:1017C000580A00002044465352203D20202530383E
:1017D000580A00002041465352203D202025303831
:1017E000580A0000204D4D464152203D20253038FA
:1017F000580A00002042464152203D202025303822
:10180000580A00004D6973630A000000204C522FF3
:101810004558435F52455455524E3D202530385867
:101820000A0000005B486172644661756C745D0A71
:10183000000000005B4275734661756C745D0A00C0
:101840005B55736167654661756C745D0A000000E5
:101850000000000000000000010203040607080960
:10186000D9DED9DED9DEFADEF9DEFADEFADEFADE1C
:10187000FADEFAE6FAE61AE71AE71AE7FAE6FAE60D
:10188000FADE1BDFAB52E4182621E618E618C5186D
:10189000E418E418E318E318E318C318C318A318EE
:1018A000A310A310A310A310A31083108210821002
:1018B00062106210421062086210621062086208D0
:1018C000410841086210C418E418C418C418C418A8
:1018D000A410A410A410C410C418E518E518E51845
:1018E000C518C410C510C518E518E518E518E518A1
:1018F000C518C518E518E618E618E618E618E6183B
:10190000E620C5180621C4180521242195B51BE73A
:10191000FADEFADEFADEFAE6FADEFADEFAE6FBE6EE
:10192000F9DEFADEFAE6FAE6FAE6FAE6F9DEF9DEDA
:10193000F9DEF9DEF9DEF9DEF9DED9DED9DED9DE4F
:10194000D9DED9DEB9DED9DED9DED9DEB9DEB9DE3F
:10195000B9DEB9DEB9DEB9DEB9DEB9DEB9DEB9DECF
:10196000FADEFADEFADEFADEFAE6FAE6FAE6FAE697
:10197000FAE6FAE61AE71AE71AE71AE7FAE6FAE6E3
:10198000FADEFADE494AE418E520E518E618E5181B
:10199000E41804190319E318E318C318C318A318AB
:1019A000C410C410C418A310A318A318A310A31024
:1019B00082106210621062086208620862084208BF
:1019C0004108210041088210A310A310A310C418DD
:1019D000A410A410A410C410C418C418C418C418A7
:1019E000E518C410C410C518E518C518C518E518C1
:1019F000C518C518C518C518E518E618E618E6187C
:101A0000E620E5180621E5182521242195B53BE7B8
:101A1000FADEFADEFADEFAE6FAE6FADEFADEFADEF6
:101A2000F9DEF9DEF9DEF9DEF9DEF9DED9DED9DE3E
:101A3000D9DED9DED9DED9DED9DED9DED9DED9DEEE
:101A4000B9DEB9DEB9DEB9DED9DED9DED9DEB9DE7E
:101A5000B9DEB9DEB9DEB9DEB9DEB9DEB9DEB9DECE
:101A6000D9DED9DED9DED9DED9DEF9DEF9DEF9DE5E
:101A7000FADEFADEFAE6FAE6FAE6FADEF9DED9DEB0
:101A8000FADE99D6E7390521E518E620E5180519AB
:101A9000E418E418E318E318C318C318A318A31034
:101AA000A410A410A310A310A310831083108210FD
:101AB00082108210821062106208420842084208B6
:101AC000410821002108620882108310A310C41865
:101AD000C418C418E418E418E518E518E518E51862
:101AE000E518C418C418E518C518C518C518E518B0
:101AF000C518C518C518C518E518E518E518E5187E
:101B0000E618E6200621E5184529042195B53BE7AE
:101B1000DADEFADEFADEFAE6FAE6FAE6DADEDADE4D
:101B2000FADEF9DED9DED9DED9DED9DED9DEF9DE9C
:101B3000D9DED9DED9DED9DED9DED9DED9DED9DEED
:101B4000D9DED9DED9DED9DED9DED9E6D9DED9DED5
:101B5000B9DEB9DEB9DEB9DEB9DEB9DEB9DEB9DECD
:101B6000D9DED9DED9DED9DED9DED9DED9DED9DEBD
:101B7000F9DEF9DEFADEFADEFADEF9DED9DED9DEEA
:101B80001BE7F7BD66292521E5180621E518E518AC
:101B9000E418E318C310C318C310A310A310A310B4
:101BA000A310A310831083108210621082106210A1
:101BB000821082108210621062106208620862084D
:101BC00021002100210862088310A310C318C41843
:101BD000C418C418E418E518E418E418E418E41864
:101BE000E418C418C418C418E518C418E518E51892
:101BF000E518C518C518C518C518E518E518E5187D
:101C0000C518E620E520E5184629042195B55CE7CE
:101C1000FADEFADE1AE71AE7FAE6FAE6FAE6DADEBA
:101C2000FAE6FADEF9DEF9DED9DEF9DEFADEFADE10
:101C3000F9DEF9DEF9DEF9DEF9DEF9DEF9DEF9DEEC
:101C4000FAE6D9E6D9E6D9E6D9E6D9E6D9E6D9DE83
:101C5000D9DEB9DEB9DEB9DEB9DEB9DEB9DEB9DEAC
:101C6000D9DED9DED9DEF9DEFADEFADEFADEFADE18
:101C7000FADEFAE6FAE6FAE6FAE6FAE6FAE6FAE66C
:101C80005CEF34A504212621E5180621C518C418E7
:101C9000C418C418C310C310C318C318C418C41878
:101CA000C418A310A310A310A310831082108210D5
:101CB0008210821062108210821082106208420824
:101CC000210001002100410862088210A310A31026
:101CD000A310A310C418C418A310A410C418C418C7
:101CE000C418A418C418C418C418C418C418E51813
:101CF000E518C518C518C518C518C518E518C518BC
:101D0000C518E618E518052146292421B6B55CE773
:101D10001AE71AE71AE71AE71AE7FAE6FAE6FAE61E
:101D2000FAE6FAE6FAE6FAE6FAE6FAE6FAE6FAE6B3
:101D3000FAE6FAE6FAE6FADEFADEFADEF9DEF9DECD
:101D4000FAE6FAE6D9DEFAE6FAE6FAE6D9DED9DE0E
:101D5000D9DED9DED9DED9DEB9DEB9DEB9DEB9DE4B
:101D6000F9DEF9DEFADEFADEFADEFADEFADEFADEB5
:101D7000FADEFAE6FAE6FAE6FAE6FAE6FAE6FAE66B
:101D80009DF7518C04212629E518E520E518C51892
:101D9000E418E418E418E418E418E418C418C418A3
:101DA000C418C418C318A318A310A310A310A31019
:101DB0008210821082108210831082106208410803
:101DC00021082100210021004108620882088210B8
:101DD000A310A310C310A310C418C418C418C418A7
:101DE000C418C418C418C418C418C418C418E518F2
:101DF000E520E518E518E518E518E518E518E518F3
:101E0000E518E518E518051945292421F7BD3BE734
:101E10001AE71AE71AE71AE71AE7FAE6FAE6FAE61D
:101E2000FAE6FAE6FAE6FAE6FAE6FAE6FADEFADEC2
:101E3000FAE6FAE6FAE6FADEFADEF9DEF9DEF9DECD
:101E4000D9DED9DED9DED9DED9DEFAE6D9DED9DEB1
:101E5000D9DED9DED9DED9DED9DEB9DEB9DEB9DE2A
:101E6000F9DEF9DEF9DEF9DEFADEFADEFADEFADEB6
:101E7000FADEFAE6FAE6FAE6FAE6FAE6FAE6FAE66A
:101E80005DEF6E6B042146290521E5200621E5184A
:101E9000E518E418E418E418E418C418C418C418C1
:101EA000A318A310A310A310831083108310831012
:101EB0008310821082108210821062106208410822
:101EC0006108410841084108420862086208620846
:101ED000A310A310A310C318C418E418E418E4183E
:101EE000C418C418E418E518E518C418C518E5188E
:101EF000E520E518E518E518E518E518E518C51812
:101F0000E518E518E51805214521452138C63BE7C8
:101F10001AE71AE71AE71AE71AE71AE71AE71AE7B9
:101F2000FAE6FAE6FAE6FAE6FAE6FAE6FAE6FADEB9
:101F3000FAE6FAE6FADEFADEFADEF9DEF9DEF9DED4
:101F4000D9DED9DED9DED9DED9DED9DED9DED9DED9
:101F5000D9DED9DED9DED9DEB9DEB9DEB9DEB9DE49
:101F6000F9DEF9DEFADEFADEFADEFADEFADEFADEB3
:101F70001AE71AE7FAE6FAE6FAE6FAE6FAE6FAE61F
:101F8000FCE68B5AE42046290621C5180621E518EF
:101F9000E518E418E418C418C318A31083108310BC
:101FA000831083108210821082108210821082109F
:101FB0008210821082106210620862084208420891
:101FC00041086108620862088210621062084208D3
:101FD000620862108210A310C310C318C318C31084
:101FE000C418C418C418E518E518C418C418C418CF
:101FF000C518C518C518C518C518C518C518C518F9
:10200000E518E518E51825212521452978CE3BE777
:10201000FAE61AE71AE71AE71AE71AE71AE71AE7D9
:102020001AE71AE7FAE6FAE6FAE6FAE6FAE6FAE66E
:10203000FAE6FAE6FAE6FAE6FAE6FADEFADEFADEB8
:10204000FAE6D9DED9DED9DED9DED9DED9DED9DEAF
:10205000D9DED9DED9DED9DEB9DEB9DEB9DEB9DE48
:10206000FAE6FAE6FADEFADEFADEFADEFADEFADEA0
:10207000FAE6FAE6D9DE1AE7DADEFAE6FAE61BE76E
:102080009AD6A73926290521E520E5200521E5185E
:10209000E518A410C418C418A310C418A310A310E2
:1020A000A310A3186208821083106208A310821084
:1020B0008210821082108210621062086208420848
:1020C0006108610882108210A210A210A210821072
:1020D000620842086208620882108210A310C318C6
:1020E000A410A410A410C410C418C418C410C410A0
:1020F000C418C510C410C518E518E518E518E5188A
:102100000619C410C418E4182521452917C63CEF48
:10211000FAE63AE71AE71AE71AE719E73AE7F9E6BB
:10212000FAE6FAE61AE71AE71AE7FAE6FAE6FAE64C
:10213000FAE6FAE6FAE6FADEFADEFADEFADEF9DEC8
:10214000D9DED9DED9DED9DED9DED9DEFAE6FAE685
:10215000D9DEB9DEFAE6B9DED9DEB9DED9DE57CE90
:10216000F9DEF9DEF9DEF9DEFADEFADEFADEFADEB3
:10217000FAE6FADEFADE1BE7DADEFAE6DADE3BEF53
:10218000D8BD66294629252105210521E520E51828
:10219000A410C418C418E41882100421A318A310B2
:1021A000C3188210A310621062108210C318A3100B
:1021B000821082108210821082108210821082108F
:1021C00061086108610861086108610861086108C7
:1021D000821082108310A310A3108310A310A310E9
:1021E000C410C410C410C410C410C410C418C5183E
:1021F000C518C518E518E518E518E518E518E51837
:10220000C410051905212521C3182529FBE67CEFFB
:102210001AE7FAE63AE73AEF1AE7FAE61AE71AE7B0
:102220001AE71AE71AE71AE71AE7FAE6FAE6FAE609
:10223000FAE6FAE6FAE6FADEFADEFADEFADEFADEC6
:10224000D9DED9DED9DED9DED9DED9DED9DED9DED6
:10225000D9DED9DEB9DEFAE6D9DED9DE78D678D68F
:10226000D9DED9DEF9DEF9DEFADEFADEFADEFADEF2
:10227000FAE6DADEFAE61BE7FAE6FAE6DADE7CEF01
:10228000D49C25214629262105210521E518E5189C
:10229000E5182521C418C418E418821004218210FE
:1022A0004108410862108210831062086210821097
:1022B0008210821082108210821082108310A3106C
:1022C0008210821082106208620862086108610848
:1022D000410841084208620882108210A310A31826
:1022E000A410A410A410A410A410C410C410C518E5
:1022F000C410C518E518E518C518C518E518E5187F
:10230000E520C418E418E418E4204529CA5AD6BDCB
:102310005CEF1AE71AE71AE71AE73AE71AE71AE74B
:102320001AE71AE71AE71AE71AE7FAE6FAE6FAE608
:10233000FAE6FAE6FAE6FADEFADEFADEFADEFADEC5
:10234000D9DED9DED9DED9DED9DED9DED9DED9DED5
:10235000D9DEFAE6B9DEFAE6D9DEB9DE57CEB9DE65
:10236000F9DEF9DEF9DEF9DEFADEFADEFADEFADEB1
:10237000FAE6DADE1AE71AE7FAE6FAE6DADE7DF7D7
:10238000B07B05214729262105212621E518E518DE
:10239000A410A310E420E418E418E4184108AB5A90
:1023A000D39C6E73621041088310821082108310D8
:1023B000831082108210821082108210821083108B
:1023C000A310A310A210A2108310831083108310F7
:1023D0006208620842084208420841086208621026
:1023E000831083108310A310A410A410C418C41861
:1023F000C418C418C418C418C418C418E518E520B3
:10240000E520C4188310E4208218E420E320AA5AAF
:1024100058D63BEF1AE7FAE61AE73AE71AE71AE75F
:102420001AE71AE71AE71AE71AE7FAE6FAE6FAE607
:10243000FAE6FAE6FADEFADEFADEFADEFADEFADECC
:10244000D9DED9DED9DED9DED9DED9DED9DED9DED4
:10245000D9DED9DED9DEB9DED9DE78D678D6D9DEB6
:10246000FADEFADEFADEFADEFADEFADEFADEFADEAC
:10247000FAE6DADEFAE6FAE6FBE6FAE6FAE65CEF18
:10248000CD5A06214729052105210521E4180521FA
:1024900026210521E418A318C318A318EC621CE731
:1024A000BEFF9AD6E42021086210821082108210AA
:1024B0008210821082086208620862108210821004
:1024C00082108210A3108310831082108210821059
:1024D000A31083108210821082106210621082108A
:1024E00062086208620862108310A310A3108310B0
:1024F000A418A418A418A418C418C418A418A418BC
:10250000A418A4186310831862108218C741A63952
:1025100050943BEF1BEF1AE73BEFFAE6FAE63AE797
:102520001AE71AE71AE71AE71AE7FAE6FAE61AE7E5
:10253000FAE6FADEFADEFADEFADEFADEFADEFADED3
:10254000FADEFADEF9DEF9DEF9DED9DED9DED9DE31
:10255000F9DED9DEFAE6B9DE98D678D6D9DED9DE4C
:10256000FAE6FAE6FAE6FAE6FAE6FAE6FAE6FAE66B
:10257000FAE6DADEFAE6FAE6FAE6FAE61BE7DADE89
:102580000A42472947290521052105210521052161
:10259000A410E418C4180421A318042179D61BE759
:1025A00059CE1CE7E74121088210620862104208F8
:1025B000820882086208620862086208621082105B
:1025C00062086208620862086208620862084208DB
:1025D00062086208621082108210621082108210FB
:1025E00083108210821082108310A318A318A318DE
:1025F000C418C418C420C420C420C418A418831844
:10260000631063106210831804294531A6394852BB
:10261000CE833BEF1BE7FAE63BEFFAE61AE71AE751
:102620001AE71AE71AE71AE7FAE6FAE6FAE61AE705
:10263000FADEFADEFADEFADEFADEFADEFADEFADEDA
:10264000FAE6FADEFADEF9DEF9DED9DED9DED9DE27
:10265000D9DED9DED9DED9DE57CEB9D6F9DED9DE5C
:10266000FADEFADEFADEFADEFADEFAE6FAE6FAE692
:10267000FAE6FAE6FAE6FAE6FAE6FAE63BE737C6FB
:1026800088318831462905212521E5180521E418DE
:102690000521C418052105212108308C5CEF58D68E
:1026A000DBE67EF78E73000082108310A310820891
:1026B000820862086208620862086208621062109A
:1026C000620862086208620842084108410841083D
:1026D00042084108410841084108210821084108F1
:1026E000210841084110621041104210621062102E
:1026F0006210831083188318831883188318831833
:10270000A4180529E420663987392952895A2852A4
:10271000719C5CF7DAE6FAE61BE71BE71BE71AE7B2
:102720001AE71AE71AE71AE7FAE6FAE6FAE6FAE625
:10273000FADEFADEFADEFADEFADEFADEFADEFADED9
:10274000FAE6FADEFADEF9DED9DED9DED9DED9DE46
:10275000D9DEFADED9DED9DE78D6D9DED9DED9DE09
:10276000D9DEF9DEF9DEF9DEFADEFAE6FAE6FAE6B5
:10277000FADEFAE6FADEFAE6FAE6FAE63BEFB5BD8D
:1027800047298831262905212621E4182521C41846
:10279000E418E418C3188210042959CE9ADEDADE50
:1027A000BADE3CEFF3A400008210410862088210F8
:1027B0008210821082086208620862086208621051
:1027C000820862086208420841084108410841083D
:1027D0004108210821002100210841086210A310AE
:1027E000A318E320242925292529042104292529A2
:1027F000452946314631463146316631A739C8410F
:10280000A839094AE841C841094A294A8A5A49521D
:10281000F3AC1BEFFAE61BEF1BE71AE71AE71BE71F
:102820001AE71AE71AE7FAE6FAE6FADEFADEFAE655
:10283000FADEFADEFADEFADEFADEFADEFADEFADED8
:10284000FADEFADEF9DED9DED9DED9DED9DED9DE6E
:10285000D9DEFAE6F9DE98D6F9DEB9DED9DEF9DEA0
:10286000FAE6FAE6F9DEF9DEF9DEF9DEF9DEF9DE9E
:10287000F9DE1AE71AE7FADEFADEFADE3BE716C6F9
:102880004829683147290621E6200621E518C518A0
:10289000E418C41845296210AA5A1CEF58D699E6C4
:1028A000FBE6FBE6D6BD61086108410861086208E5
:1028B00062086208620862108208620862086208A0
:1028C00061106210611041084108611061104108F7
:1028D00041102108A218C320C3202529253186399B
:1028E000864166396639A7418639463166394639A7
:1028F000663966398741A849874146398749A849D9
:10290000C849A849E951E951095A09522A5A295294
:10291000B3A45CF7FBE6FBE61BE71AE7FAE61AE767
:10292000FAE61AE71AE7FAE6FAE6FAE6FAE6D9DE8E
:10293000FAE6D9DED9DEFAE6D9E6D9DED9DED9DE85
:10294000B9DEB9DEB9DEB9DE99DE98DE98DE98DE52
:10295000B9DE78D657D698DEB9DEB9DE98DEB9DEB4
:10296000FAE6FAE6FAE6FAE6FAE6FAE6FAE61AE746
:10297000F9DEFADE1ADFFADEFADEFADE3BE717C628
:102980008831683127290621E520E518C518E518A2
:10299000E520C420E4208218D3A43CF779DEBAE60F
:1029A0003CEFFBE618C68110410862104108831015
:1029B00062086208620862106210620862086108B8
:1029C00021086110621061104108411062108218E4
:1029D00004292429253166316631453145310429E0
:1029E0004539463925314531253125316639463954
:1029F000673967396741874187416741A849C851AD
:102A00002A5AE951E951A8490952C849E8510852DE
:102A1000D3A43CEFFBE6FAE6FADEFAE6FAE6FAE6DB
:102A2000FAE6FAE6FAE6FADEFADEFADED9DEB9DE30
:102A300078D657CE57CE37CE37CE16CE16CE37CE27
:102A400016CE17CE17CE16CEF6C5F6C5F6C5F6C508
:102A500016C616CE57D6B9DED9DEB9DEB9DEB9DE76
:102A6000D9DED9DED9DED9DED9DED9DED9DED9DEAE
:102A7000D9DEF9DEFADEFADEFADEFADE1BE737C669
:102A8000A8316829262106210621E518E518E51850
:102A9000E418E420E420042938CE9ADE59D6BAE6B8
:102AA000FBE61CE75CEF6952000041088210410818
:102AB00062108210621062106208410841084108E9
:102AC0008210411041086210C3200429453145316C
:102AD000252966396639663945312531663925310A
:102AE00004312531253104290429052926314631AF
:102AF00005312531E53005312539253967418749CB
:102B0000A741C8492A5AC849295A8749C749495A31
:102B100055B51CEFFBE6FBE6FADE1AE71AE7FAE624
:102B20001AE71AE7FAE6FAE61AE7FAE6D9DE98D6DD
:102B300057CE37CE16CE16C6F6C5F6C5F6C5F6C5BF
:102B4000F6CDF6CDF6CDF6C5F6C5F6C5F6C5F6C595
:102B5000B5BD16CE98D6D9DED9DEB9DEB9DEB9DE7E
:102B6000D9DED9DED9DED9DED9DEF9DEF9DEF9DE4D
:102B7000F9DEFADEFADEFADEFADE1AE71AE758CEF6
:102B8000C8316729262126212621E518E518C41811
:102B9000E418C4188210494A1CE7FBE659D69ADEAD
:102BA0003CEFDADE1BE73CEF308CE3200000A3189B
:102BB00062106210621041104108410862106210F8
:102BC00062108218E4202529453145314531863986
:102BD00045316639453145310429E4280429E42882
:102BE00004292531253125312531053104292531A7
:102BF0002531463905310531463946396741874126
:102C0000C849C849A84946410952E851C7498A629A
:102C100038CE3CEF1BE71BE7FAE61AE73BEFFAE694
:102C20001AE71AE71AE71AE71AE7FAE6D9DEB9DE71
:102C300037CE37CE17CE37CE37CE16CEF6CDF6CD31
:102C400016CEF6CDF6CDF6CD16CEF6C5F6C5F6C542
:102C5000F6C557D6D9DED9DEB9DEB9DEB9DEB9DEC2
:102C6000FAE6FAE6FAE6FAE6FAE6FAE6FAE61AE743
:102C7000FAE6FAE6FAE61AE71AE71AE71AE7B9D621
:102C80002A424729462926210519C418E518A31008
:102C9000A310C3186210518C7DF7BADE518C14ADAD
:102CA0003CEF1BE7FBE6FBE67DF779D6A739000092
:102CB000411062188318A318A318C320E420042924
:102CC0004531663986398639453104292531453102
:102CD0004531E42804292531463966392531253125
:102CE000042904290429253145312531C428052921
:102CF0002531663925314639664166416641663976
:102D000025318741874146398741E849C849AE8323
:102D1000FBE61BEFFADE1BE7FAE61AE71AE71AE70B
:102D20001AE71AE71AE7FAE6FAE6D9DED9DEB9DEDB
:102D300058D657D637CE37CE37CE16CEF6CDF6CDBF
:102D4000F6CDF6C5F6C5F6CDF6C5F6C5D6C5F6C5BB
:102D500037CE98D6D9DEB9DEB8D698D6B9D6B9D698
:102D6000F9DEF9DEF9DEF9DEF9DEF9DEF9DEF9E6A3
:102D7000FAE6FAE6FADE1AE71AE73BE71BE71AE794
:102D80000D5B262146290521E518E4180521C41804
:102D9000E418E418620875AD1CE738CE4D6BD7BD5A
:102DA0003CEFFBE6FBE6DBDEBADE3CEF18CEE320D1
:102DB000A320E428253145316631663986398639C4
:102DC000E849C741A7418639863966396639663987
:102DD000A74105312531253125312531E42805313B
:102DE0000429C320C320E3280429E428A320E428DD
:102DF000C420E428E4282531453945394639453988
:102E000005312539253946398741495A08525194A7
:102E10005CF71BE7FADE1AE71AE71AE71AE71AE780
:102E20001AE71AE71AE7FAE6D9DED9DEB9DEB9DE23
:102E300078D657D637CE37D637D617D617CE17CE41
:102E4000F6CDF6CDF6CD16CEF6CDD6C5F6C516C660
:102E500057D698D6B9DED9DEB9DEB9DED9D6D9D6FD
:102E6000FAE6FAE6FAE6FAE6FAE6FAE6FAE61AE741
:102E7000F9E6FADEFADE1AE7FAE61AE71BE75BEF95
:102E8000F07B052126210521E418E418E418E41854
:102E9000A3186210E4207AD63DEF35AD6A52F3A450
:102EA0005CEFFBE6DBDEFBE6FBE69ADEDBE6AB6235
:102EB00025318639C741C741A741A741A741A7414D
:102EC00025318639A741A741663945394539453904
:102ED0002531043125310531E428E4284539A7415D
:102EE0002431C320C320A320A220A3208218C32002
:102EF000C320E428E428453946394539A641A7418D
:102F000067418741C84987496641C7496A5AF7CD31
:102F10003CEF1BE71BE71AE71AE73BE7FAE61AE77D
:102F20001AE71AE71AE71AE7FAE6FAE6B9DE98DED0
:102F300057D637CE16CE17CE17CE17D617D617D6EA
:102F4000F6CDF6CDF6CDF6C5D6C5B5BDD5C516C6FA
:102F500098DEB9DED9DED9DED9DED9DED9DED9DE1A
:102F6000F9DEF9DEF9DEF9DEFADEF9DEF9E6F9E698
:102F7000FAE6FAE6FADE1AE7FADE1AE7FAE65CEFB4
:102F80009394C42005210529C420A418621083103D
:102F900082102108E841FCE67AD6108CEC6214AD70
:102FA0005CEFFBE6FBE6FBE69ADEBADEFCEE8A5A55
:102FB00045398641C749A7418641864186418641B8
:102FC000E849A741663905310531253145312531BB
:102FD000043125392531453905310431A641A74150
:102FE000863904310429C3208218A320A320C320DA
:102FF000C320C320E42825310431043166398641D9
:1030000066414639E85109520852495A4D731CEF3E
:10301000FBE6FBE63BE7FADE1AE73BE7FAE61AE7F0
:103020001AE71AE71AE7FAE6FAE6FAE6B9DE78DE10
:1030300058D637D637D637D637D617D616CEF6CD9A
:1030400017CEF6CDF6CDF6C5D5C5B5BDD6C537CEAE
:10305000D9DED9DED9DED9DEB9D6B9D6D9D6D9DE10
:1030600098D6B9DED9DEFAE6FAE6F9E6FAE6F9E646
:103070001AE7D9DE1AE71AE71AE71AE75CEF3BEF1F
:103080004E73A420C42083188318A3180529253162
:10309000463125314E735EF715ADF0836E73D3A4C0
:1030A0003CEFDBDEDBDE1CE7DBE6BBE6FCEE0C73B5
:1030B000E428864145394539453925394539864120
:1030C00066392531253166396639453946396641D3
:1030D0004639E428053125314539043186416639C0
:1030E000C749A641253145314531E428C320C320D5
:1030F000C3208218E428C3288220C32804316539FC
:10310000A7496641E849E849295A285296BD1CEF6B
:10311000FBE61BE71BE71BE71AE71AE71AE71AE7C4
:103120003AE71AE71AE71AE7FAE6D9E6B9DE99DECE
:1031300058D637D637D617D617D617D617D617CEAE
:10314000F6CDF6CDF6CDF6CDD6C594BDD6C5B9DE55
:10315000D9DED9DED9DED9DED9D6D9DED9DED9DEBF
:10316000B9DEB8D6B9DEFAE61AE7F9DEF9DE1AE713
:10317000FAE6FAE61AE7FAE6FAE63BEFDADE33AD0C
:103180008741E528463967394A5AAB624A52094AAB
:10319000A7418739739CDCE6118C118C0D6B35B51A
:1031A0005DEFDBDEFBE6DBE6DBE6BADE5DF78E83BA
:1031B000A2204539043145396641664145394539D2
:1031C00087412531042925314531253125312539DE
:1031D00005310431E4282531A3202531864186417B
:1031E0008641663925312531453904294531453136
:1031F0002531042925310431E428E428E328043169
:103200002531C8498641295A0852EB6A9ADE3CEFBB
:10321000FBE61AE71BE71AE71AE71AE71AE71AE7C5
:103220003AE71AE71AE7FAE6D9E6D9E6B9DE78DE30
:1032300058D637D617D617CE17D617CE16CEF6CD08
:10324000F6CDF6CDF6CDF6C5D5C5B5BD37CED9DEB2
:10325000D9DED9DED9DEB9DED9D6D9DED9DED9DEDE
:10326000D9DEB9D6B9DED9DEFADEF9DEF9DEFAE664
:10327000F9E61AE7FAE6FAE6FAE63BEF78D68D7356
:10328000AC6A8B62AC6A8B626B628B622A5AC849E9
:10329000C849463976BDB7C54E738F7B118CF8CDC2
:1032A00018C63DE7DBDEDBDEDBE6FCEEDBE6F08BC3
:1032B000C328864145394539453945394539253190
:1032C000053125312531453125312531253125314E
:1032D00045310431E3286218E428A64125316539D7
:1032E000663965396539653966390431453945319D
:1032F00086398641A6418639864186414539453918
:10330000253105314539E849C749719C3CF7DAE672
:103310001AE71AE71BE71AE71AE71AE71AE7FAE6C5
:103320001AE71AE71AE7FAE6D9DEB9DE99DE58D6C7
:1033300037D637D617CE17CE17CE16CEF6CDF6CD5A
:10334000F6CDF6CDF6CDD6C5B5BDF6C598D6FAE61E
:10335000D9DED9DED9DED9DEF9DEF9DEF9DEF9DE35
:1033600098D6B9DED9DEB8D6B9DE1AE71AE7F9DEA3
:10337000FAE6FAE6FAE61AE71AE71AE799D6CE7BF2
:103380006F834F83ED728B6AE951095A295A295A82
:10339000A749463956BDF4ACF08BAF7B97BDD8C575
:1033A000D07B19C63DEFBBDEFCEEBBDE1CEF5194BB
:1033B000C328A741663966394539453965396539C4
:1033C000E4282531463946390531E428E428E42843
:1033D000C328E428E428E428AF83E7496639864116
:1033E0008641663986418641664104312531053181
:1033F0006639864186416639A741C749A641A64933
:10340000874166396641A749A749B6C55CF7FBE61F
:103410001AE71AE71AE71AE71AE71AE71AE7FAE6C5
:103420001AE71AE71AE71AE7D9DE99DE78DE58D6E6
:1034300037D617D617CE17CE17CE17CE16CEF6CD57
:1034400016CEF6CDF6C5D5C5B5BD37CEB9DED9DEBB
:10345000B9DEB9DED9DED9DED9D6D9D6B9D6B9D654
:1034600057CE98D6B9DE98D6B9D6F9E61AE7F9E676
:103470001AE7FAE6D9DE1AE7FAE61AE7FAE6F2A45C
:10348000908BF19BED7A8B6A8B6A4A62A849A849B6
:10349000E851C849729C118C118C318C7AD6D4A415
:1034A000F07B518C76AD3DEFBBDEBBE63DF7309453
:1034B000A320A7418641864166394539253125310A
:1034C000E428E428E428E428E42805290429042938
:1034D000253166390429C741719CA3206539A7416C
:1034E000A7496639664166394639053125312531A6
:1034F0006639A7418641663986418641A641A7497A
:10350000085208520852E7498A623CF7FBE61BE77B
:103510001AE71AE71AE71AE71AE71AE71AE7FAE6C4
:103520001AE71AE71AE71AE7B9DE57D657D657D679
:1035300017D617D617D637CE37CE37CE17CE17CEEB
:1035400017CEF6C5F6C5F6C516C698D6D9E6B9DEC5
:10355000D9DED9DED9DED9DED9DED9DED9D6B9D6E3
:1035600057CE78CE98D6B9DED9DED9DED9DE1AE7C5
:103570001AE7FAE6FAE6DADEFAE61AEF3BEFD6C524
:10358000908B6F8BCD720D7BCD726A62C851E85102
:1035900008528741729CAF836E739294FCE62D6350
:1035A0008E73728C10847294BBDEFCEEDBE6519459
:1035B000E428A74145394539453925310429E4280E
:1035C000E428E5280529052905312531253125314E
:1035D000E428E428A3200429084AA2206539084ADF
:1035E000A749463966418641463946392539253944
:1035F0008741C749A741A74186418641A749C74995
:1036000008520852295AE751CB6AD6C53CEFFAE670
:103610001AE71AE71AE71AE71AE71AE71AE7FAE6C3
:103620003AE71AE71AE7D9DE78D616CE17CE37D69C
:1036300037D637D637CE37CE37CE37CE37CE37CE52
:1036400016CEF6C5F6C537CE78D6D9E6FAE6D9DE77
:10365000FAE6FAE6FADEFAE6FAE6FAE6FAE6FADE7A
:1036600078D677CE78D6B9DED9DEB8DED9DE1AE7DD
:10367000FAE61AE7FAE6D9E6FAE6FAE61BEF99DE89
:1036800032A40E7BCD720E7B6B62095A095A295AFD
:10369000A74145393194CF838E7B35AD9AD686319B
:1036A0008B5231841084AF7B108439D65DF75194EE
:1036B00082204539042924312531253145314531D0
:1036C00025314631463145312529E428E420E420DE
:1036D000C320A318C320A218C32004292431A6396B
:1036E000A74946418641C849463966412539463988
:1036F0008741A741A741C74986416641C749E7516C
:10370000C7496A62C749C749E749285237CE5CEFC3
:103710001AE71AE71AE71AE71AE71AE71AE7FAE6C2
:103720001AE71AE71AE798D637CE16CE37CE37CE35
:1037300037D637CE37CE37CE37CE37CE37CE37CE59
:1037400016C6F6C516C678D6D9DEFAE6FAE6FAE661
:10375000D9DED9DED9DED9DEF9DEF9DEF9DEF9DE31
:1037600098D698D698D698D6B9D6D9DED9DED9DEED
:10377000FAE6FAE6FAE6FAE61BEFD9DEFAE63BEFFE
:10378000B4B4D1930E7B6B6A2A62095AC849A7491F
:103790008641C7416A5ACB628E73D7BD76AD04218C
:1037A000AF736E6B8F73528CD083318CF8CD519484
:1037B00041182531253145394531253125314531EE
:1037C0002531E428C420C420E428E428C420C320F0
:1037D000E420C3206110A218042961186539074A42
:1037E000C84966416741C8492539874166398741DB
:1037F0008741A741A741C849A741864108520852BD
:1038000008520852E851C749E749E749895AFAE698
:103810001AE73AE73AE73AE71AE71AE71AE7FAE661
:103820001AE73BE71AE757CEF6C537CE58D637CE5C
:1038300037D637CE37CE37CE17CE16CE16C616C6EB
:10384000F6C5F6C516CE78D6FAE6FAE6D9DEFAE679
:10385000FAE6FAE6FAE6FADEF9DEF9DEF9DEF9DE94
:1038600059CE9AD699D699D698D6D9DED9DEB8D679
:103870003AE7FAE6FAE61AE7FAE6FAE61AE73BEF7B
:1038800097CD908B2E7BED722A5A285A0752A54964
:10389000075AE7590539E530094AF8C55084000050
:1038A000738CD694726B526B1484749473946B52B1
:1038B0008318463925312331222903292429C418A4
:1038C0006130C1386451C138402081286228C42841
:1038D0008320832021108218A32063206741A949F7
:1038E0006641A74966418741664166414641874135
:1038F000A749C851296266498649C851A849095251
:10390000E849C8496639C7416539653965390B7376
:103910003BF71BEFFAE6FAE63BEFFAE61AE71ADFA7
:103920001AE71AE7FAE637CEF6C557D637CE57D696
:1039300078D617CE37CE37CE16CE16CE37CE16CE99
:10394000F6C537CE98D6D9DE1AE7FAE6FADEFAE6F9
:10395000F9DEF9DEF9DEF9DED9DED9DEFAE6FAE6DD
:1039600079CE79D699D699D698D6B8D6D9D6D9DE81
:10397000D9DED9DEFAE61AE7FAE6FAE6FAE61AE757
:10398000F9D5F1932E7B8C622A5A0852A649275A00
:10399000896A4541A428E530C428294A484AA10833
:1039A000694ABBDED5A46C52B17BD17B1184E94955
:1039B000A42005316639243184392431E42846397C
:1039C0006B9B6FBCD0C4CCA3C87A63490020612034
:1039D000C32820102431C641C32062188741884182
:1039E00066418749A749A7494639C849C849664138
:1039F000C851E85987498749A7496641295AC8519A
:103A0000E849A74166394531E4280431E32865399E
:103A1000EA6A1AEF5BF71AE71AE73BEF3BE71AE7A8
:103A2000FAE61AE7B9DE57CE57CE37CE57CE78D65C
:103A300078D637CE37CE37CE17CE17CE37CE17CE75
:103A400037CE78D6B9DEFAE6FAE6FAE6FADEFADE3C
:103A5000FADEF9DEF9DEF9DED9DED9DED9DED9DE2D
:103A600079D659CE79CEB9D6B9D6B8D6B8D6D9DEA8
:103A700098D6D9DE1AE71AE7FAE6FAE61AE7FAE67E
:103A80009AE66E83CC720D7B0D7308528649EB72F9
:103A90000752243962204318A420C4204529A210CB
:103AA00080200E9458DE55BD8F83EC6AAF7BCC62CC
:103AB000A420C42866390431243145396228AB7208
:103AC000EFDC6CC4CDCC70E570DD8EBCA87AA13083
:103AD0004020275AD1A403292008A2188739E94990
:103AE000A74925394641C849674167418741464151
:103AF000A851A7516641C851E851C851CC6A095232
:103B0000663925314531E428E428243165394439C2
:103B1000C228CA6AB9DE5CF71AEFB9DED9DE3BE724
:103B2000FAE61AEF37CE17CE58D637CE58D658D633
:103B300078D657D658D657CE17CE37CE37CE37CEC3
:103B400078D6B9DEFAE6FAE6FAE6FAE6FAE6FADE58
:103B5000FADEFADEF9DEF9DED9DED9DED9DED9DE2B
:103B600079D658CE79CEB9D6D9DEB9D6B9D6D9DE7E
:103B7000B9DEDADEFAE6FAE6FAE6FAE61AE719E775
:103B8000DBEECF8BEC72EC72AC724962AA6A2C7BD2
:103B9000E749042942184210831882180321E220C1
:103BA000602841498B9BD4DD95CD929C8B526E73DE
:103BB000A739042925310429043181284030687A45
:103BC000A7BB46AB04A3C7BBCCD42EDDEECC0CAC5C
:103BD000088311BDCC8B80188118A2184629E941B1
:103BE000A7496641A749A7496641A849A749253978
:103BF000A751A749C751C751E851295A29526641CF
:103C00000429C4280431E428E42804318541C64944
:103C10002852E649EA6A94BD3BEF7CF7FAE61AE7D8
:103C20001BEFFAE678D637CE78D678D699DE78D6F6
:103C300058D658D658D637CE37CE37CE37CE37CEE1
:103C400078D6B9DEFAE6FAE6F9DEFAE6FAE6FADE60
:103C5000FADEFADEFADEF9DED9DED9DED9DED9DE29
:103C600099D679CE78CE98D6B9D6B9D6B9DEB9D6A6
:103C7000D9DEB9DEBADEDADEFAE6F9E6F9E619E708
:103C80001BF7D3AC2D7BAC726A6A4962CB720B73A3
:103C9000495A2531631063100108611861188120A9
:103CA0002151E78A699BF0CC33CDD7CD5294D07B9C
:103CB0000942E32004290429A22860288BA3EFDC11
:103CC00069DC89DC68D448CCC7BBC8BB4BC42BBCFF
:103CD0002CB40CA46562001060182010C841A839EB
:103CE00086498741C84987418741A849874166413C
:103CF00086416641A749C749295A6A6287412531E9
:103D0000C328E428E4282431043104314539C74963
:103D10002852485A695A895A2C73B6C55CF7FAE694
:103D2000FAE698DEB9DE99DE58D678D678D678D617
:103D300058D658D658CE37CE37CE37CE37CE37CEE8
:103D400078D6D9DEFAE6FAE6F9DEFAE6FAE6D9DE60
:103D5000FADEFADEFADEF9DED9DED9DED9DED9DE28
:103D600099D699D678CE58CE78CEB9D6B9DE99D62E
:103D7000BADE99D699DEDADEFAE61AE719E719E72C
:103D80001BEFD6CD6D83AB72AB7229626962EB72A9
:103D90004952A73983100108211040184020E559E5
:103DA0006FCCAFD44DC4ECB3066A8D8BD8C5F8C5C3
:103DB0002D63A210442923298028C882ADD4E9C3E9
:103DC000ECEC8EFD4CF50BEDCAE449CC09C4C9BB43
:103DD000CAABEAAB2CAC866A0018A120A741A84167
:103DE0006641463987498741A84987416741E8517B
:103DF000295AE8518649295A6962C7490429C320CA
:103E00008220043104296539453986416541A6413E
:103E1000E7490852E7490752895A685A33B55CF7AF
:103E20003BEF78D699DE99DE58D658D637CE57CEA6
:103E300057CE57D637CE37CE37CE37CE37CE58D6E9
:103E4000B9DED9DEFAE6FAE6F9DEFADEF9DED9DE27
:103E5000FADEFADEF9DEF9DED9DED9DED9DED9DE28
:103E600099D699D698CE78CE78CE99D699D699D635
:103E700099D69ADEBADEBADEFAE61AE71AE719E749
:103E80001AEF58DE8D8349626A72AB7A6A6AAB6A4E
:103E9000AB62C841C420010820100018C459AFBC4F
:103EA00090D4668AE058C0502251A5592D7B18CE77
:103EB0003084C210442980186028EBB3C9BB45ABDD
:103EC00046ABC8BBCBE46EF50CE5ECE42EEDADDC07
:103ED0002BC4A9B3EBB34DB48772A130A74988496D
:103EE00066416641095287418741E851E851A74937
:103EF000A749C7498649696208522531E428E42068
:103F0000A3200429043165392539664165412439E6
:103F100045398641085208520752485A695A54B5E1
:103F2000DAE6D9E699DE78D678D678D637CE57CE87
:103F300037CE57CE37CE37CE37CE17C617CE79D637
:103F4000D9DEFAE6FAE6FAE6FAE6FADEF9DEF9DEB4
:103F5000FADEF9DEF9DEF9DED9DED9DED9DED9DE28
:103F600099CE99D6B9D6B9D698D699D679D699D6C2
:103F700079D6BADEBADE99D6B9DEF9E619E7F9E6FE
:103F80005BEFB5C52C7BCB72EC82EC822962496277
:103F90000C73E841663900100010A038ECB34DC432
:103FA00004820482E7920893E78A477A43494441AE
:103FB0007194C210E2208120E98AAED48CD4ECE462
:103FC000ADDC8CD4E9C3C8BB4ACC6BD46CD4EEE472
:103FD000ADDC2BCCCAB34CBC09938559665147491B
:103FE000A7492539C851A84967418741A749664172
:103FF0006641A749295AAA6A6641A320C320E4283A
:10400000E428C3280431864125396541C749654103
:104010008641A649C74986410852285A2852285243
:1040200054B5BAE6D9E658D657D637CE37CE37CEBE
:1040300037CE57CE37CE17CE37CEF6C517C6B9DE38
:104040001AE7FAE6FAE6FAE6FAE6FAE6FAE6FAE64F
:10405000F9DEF9DEF9DEF9DED9DED9DEFAE6FAE6D6
:1040600099CEB9D6B9D6B9D6B9D6DADE79CEBADE16
:104070009AD6BADEBADEBADEB9DED9DEF9DE19E7E3
:104080005BEF13AD6D7B4D83ED820D836A6A085A39
:10409000495A094A6639C3280018E98A6DCCA59A9D
:1040A00044924CCC4CC4EAB3CAB369AB49A367721F
:1040B0006C832329601864516FCCCFE450F54FF521
:1040C00030E5EFDC2FE5CDDC8CD44BCC2BCCEACB30
:1040D0006CDC8CDC4CCC4CC44A9B645987596751CE
:1040E000A7498741E95146398741A849C8498749C5
:1040F000A6494541696208528220A3200429C420B0
:1041000025314539C328864186414539A749453976
:10411000A749E851E85108520852C749E8510852E6
:10412000695295BDB9DE78DE58D616CE37D616CE92
:1041300017CE57D616CEF6C537CE17C638CE1BE7E4
:10414000FAE6FAE6FAE6FAE6FADEFADEFADEFADE8F
:10415000FAE6FAE6FADEFADEFAE6D9DED9DED9DEEA
:10416000D9D6FAD6D9D6B9D699D699CE17C658CEB9
:1041700079D69AD6BADEBADEB9DEB9DED9DEF9DE94
:104180003BE733ADAE834E8BEC82EC826A722962E0
:104190008A6209528641E3386459CBB368B326B3C7
:1041A0006BDC0EE50ABCE9B3ACDC0ACC68BB089B4F
:1041B0006772033900102359C8A2A6AAA6A2EBCBA6
:1041C00030E5F2FDB1F54EED4EED4EED0EEDADE408
:1041D0008CDC8CDC8CD46DCC6AA36451665167494D
:1041E00087414641E851874187414639A749C8512F
:1041F000E8598649CB728649C328E4280429E42873
:10420000453945398741864145396641C74987491E
:10421000095A495AE851C851C749C749E851E851B4
:104220002852AA6217CE79DEF7CD58D616CE58D6C8
:1042300037CE37CE37CE37CE17C637CE99D61BE717
:10424000FAE6FAE6FAE6FAE6FAE6FADEFADEFADE86
:10425000FAE6FADEFADEFADEFAE6D9DED9DED9DEF1
:10426000B9CEB9CEB9CEB9D6B9D6B9D637C678CEC9
:1042700059CE79D699D699D699D698D6B9D6D9DEC7
:104280001BE7D2A4CF8B8F8BAC7AAC7A8A7209628F
:104290008B6A4A5AE8514549066A089B849A29D490
:1042A000CCEC0ACC2BC4ACD44AD4A7CBA3AA07AB82
:1042B000099B6359C14809A3CBCBAACB48BB649ADD
:1042C000A59AC9BB8BD4AFF5AFF58FF56FF5ACE40C
:1042D0000EEDEDE4ACD48DCCABA384518751A8494D
:1042E00087494639C849A849A84967418749674964
:1042F000A751A749295AE430C328C428253146319B
:104300004639874187412639A749463946410952EE
:10431000E851E85187416641874166418641A74996
:10432000E749C7414D7399DE37CEF7CD78DE16CE1B
:1043300037CE17CE37CE57CE17C678D61AE7FBE65C
:10434000FAE6FAE6FAE6FAE6FAE6FAE6FAE6FADE75
:10435000FADEFADEFADEFADEFAE6FAE6D9DED9DECF
:10436000DACEDACEB9CED9D6D9D6B9D637C658CE66
:1043700079CE79CE79D679D699D699D6B9D6B9D615
:104380001BEF34B51094AF932E83ED826B724A6AA3
:10439000095A6B622A6286518561458267B38BDC5C
:1043A000E9CB2BD4ADDC0EED09D409DCA8D327B3BF
:1043B0004DCCECB3ABB38ED44CDC8CE40EF52FEDCE
:1043C000EDE467B3E4A28BD44DED4DED6FF52EED2A
:1043D0002EED2EED2EE5EED4AB9B4449A7512B5A82
:1043E000263988412A5AA84967418741E951C8516D
:1043F000A751496286492539E430E42846396639AF
:1044000067412A5A67416741E9516741C8496B6270
:104410002A5AE951674167416641053125396641AC
:10442000E849C749A64134B558D6F7CD37CE17CE9F
:1044300057D637CE57CE37CE37CEB9DE3BE7FADE8A
:10444000FAE6FAE6FAE6FAE6FAE6FAE6FAE6FAE66C
:10445000FADEFADEFADEFADEFAE6FAE6FAE6D9DEA5
:10446000DACEDACEB9CEB9CEB9CEB9CE17C637C606
:1044700099D679CE58CE58CE99CEB9D6B9D6B9D626
:10448000DAE6D7C510948F8B8F93EC8209624A6A63
:10449000C8516C6A2A62465123514682C9BB87B310
:1044A000CACB8CDCCEE44BDC2AD48BE48CE42BD45A
:1044B000CBC34DCC4ECCCFDCCEDC50EDCDDC90F57B
:1044C0002EED6FF52DED8BD4CBD4ECDC0DE52EED80
:1044D0002EED0DE50EDD0ED5CBA38449C851EA5172
:1044E000C949E951C94947416741C949E951674942
:1044F000A7514A6A45416641253925396739A7419F
:10450000A8492A5A8849C9516741C9516B620A5A58
:104510008741674105310531253905314641A749B4
:10452000C749A741E7490C7317CE17CED6C578D631
:1045300037CE57CE37CE37CE98D6FAE61AE7FADE20
:10454000FAE6FAE6FAE6FAE6FAE6FAE6FAE6FAE66B
:10455000FADEFADEFADEFADEFAE6FAE6FAE6FAE67B
:10456000BACEDACEB9CED9CED9CEB9D637C657C69D
:10457000B9D679D658CE58CE78CE99D6B9D6B9D63E
:10458000BAE6B6C5F093F09B4E8BAB720962E9595F
:104590000A5A6C6A8D72A8592451C469E69A66ABAE
:1045A000ACDCEEE4ADEC2BDCCDE4CDDCEEDC69ABD9
:1045B000C381AFDCD0DC73ED72DDAEC4B2ED91ED42
:1045C00091F54FED6FED4EE56FEDCDDCCDDC6FED90
:1045D0004FED2EE50EDD0FD58A9BA551E859C9494F
:1045E0006741884988418841A8498849C951E959A2
:1045F000E959A7512541053946416641A849095263
:10460000E951A8492739A94988492B5AE9518849CC
:104610006741A849674166416741674187418641D3
:10462000A741E849C7490852D3AC38D637CE37CE70
:1046300037CE57CE37CE57CED9DE1AE7FAE6FAE6AE
:10464000FAE6FAE6FAE6FAE6FAE6FAE6FAE6FADE72
:10465000FADEFADEFADEFADEFAE6FAE6FAE6FAE67A
:10466000DBCEFBCEDACEFAD6D9D6B9CE36BE37C639
:10467000B9D699D678CE58CE78CE79CE99D6B9D645
:10468000DBEED7CDD09352A48F93ED7A6B6A0A629A
:104690002B624C6AAE7A6C72876143598582ACCCCE
:1046A000ACD42DEDE8CB6BDC2EED2FDD6DBCE050F6
:1046B000EDC3F2EC53EDE66923498451887AF1D4D5
:1046C000B2FDB2F5B1F5D1F5D1F570ED70ED70ED4B
:1046D00050F590F590F570E5E88A6451095AEA5969
:1046E0002A52EA516841A949EA518849474147415C
:1046F0008B6AA75166492541874987492A5A095239
:10470000EA59A8490639EA512B5A0A5A27398841E9
:104710002639474147398741C849A849A849A74987
:104720000952C849C749C7490C6B99DE37CE17CE25
:1047300037CE37CE57CE98D61AE71AE7FAE6FAE61A
:10474000FAE6FAE6FAE6FAE6FAE6FADEFADEFADE81
:10475000FADEFADEFADEFADEFAE6FAE6FAE6FAE679
:10476000BAC6DBCEDACEFAD6F9D6D9D636BE57C619
:10477000B9D6B9D699CE78CE78CE79CE99D6BAD6E2
:104780009AE67AE64E83D09352A46F8B2A626B6AC4
:104790006C6A4D6A6D72CE82C86143518682ACC428
:1047A0002CD549CC08D40CF52EE5D2E5C359425995
:1047B00090D4CDC3F3DC2D93E4380431A2382351D7
:1047C000CBBBD3F5D3F5D2F5F2F5D2F591F591F552
:1047D000B1FD90F570ED71E50993C6610962684914
:1047E000EA51EA5147398841EA51A849A8510A5A81
:1047F000296266494649A751095AE951AC6AC84934
:104800008849C95168496C620A5A4741674147392A
:10481000E95188494739C8490952A849A849E95185
:104820000952E849C8496639E749F7CD78D678D6BC
:1048300057D637CE77D6FAE61AE7FAE6FAE6FAE678
:10484000FAE6FAE6FAE6FAE6FADEFADEFADEFADE88
:10485000FADEFADEFADEFADEFAE6FAE6FAE6FAE678
:104860001BCFDBC61BCF3BC71AC71ACF37C637CE05
:10487000B9DE99D679D679D679CE78C658CE79DE92
:104880009AE697CD8B6A6E8332A4D09B4B6AE95926
:104890006B722A62CC7A296AAA7A286A86590FAC86
:1048A0006BD4C9CBADE4EEE4B2EDCAAB0038439AA9
:1048B000EFF48992AD827293C73869516749043128
:1048C0008228CA7233D594ED31ED70F54FE5F0F5DD
:1048D000F1F590E5B2ED8FCC28720962E959884173
:1048E000084AEA594A514A498949C8492962EA614C
:1048F000EC69494967498549887289720B5A6B3955
:10490000CA5168492B624C6248418849A8514741C5
:104910008849263967414A5AE9518741C849A84917
:10492000E951A949674167416641D3AC79DE58D660
:1049300037CE77D6D9DE1ADF1AE7FAE6FAE6FAE6D4
:10494000FAE6FAE6FAE6FAE6FAE6FAE6FAE6FAE667
:10495000D9DEFAE6FAE6D9DED9DED9DEFAE6F9E6FC
:104960001CC7FBCEFBCE1AC71ABFF9CE17C617CE8F
:10497000B9DE99D679D679D679CE99C679CE79D657
:104980007AE62D7B09520D7BF19BD19B0E83E95971
:104990000A622A626A6AAB7A6A72286A6559E769AA
:1049A000A8B32BCC0FF530ED10DDE050A5924BD421
:1049B000EFECEEBBEA71729365302741E438C438FE
:1049C00024398228455190CC15FEB2F590EDB0E522
:1049D000D1ED50DD51DDCDABC7610862E951C94968
:1049E00009522B6269510C5AA841E9490A5A2B6AAB
:1049F0000C62484905390862CA7A085A8949CC4983
:104A0000A9518C6A4C62C95147412B6227416741C9
:104A1000874947418B6AC85187414A62E9514A5ADE
:104A2000EA5147416741A8496641EF8B99DEF6C5D7
:104A300016C678CED9DE1AE71AE71AE7FAE6FAE6DA
:104A4000FAE6FAE6FAE6FAE6FAE6FAE6FAE6FAE666
:104A5000FAE6FAE6FAE6FAE6FAE6FAE6FAE6FAE656
:104A60001BC7FBCEFBCEFABE1AC71ACF37C637CE4E
:104A7000B9D6B9D699D679D699CEB9CE99CE79D6B6
:104A8000B3A4A749E8512A5A6F8BF19B4F830A625E
:104A9000C959CC7A4A6ACC7AAB7A6A7249720449AB
:104AA000C68250EDAEE451ED299BE4794DCC6DDC2E
:104AB00072ED4DA36C8A8E82231866314539A3406E
:104AC00025310439244965594B9BF1D4F4ED51D576
:104AD00051D510CD8C9BA559086229626B5A0A4AA0
:104AE0004B6289510A5A2A520A4AE9492B5A2C62C6
:104AF000EB5988496B6A296AC759A7498841CB494C
:104B00008D6A2B62A951EA596C6AC9592641A8518C
:104B100088496B6A2A62A8494641A8496B622A5AA9
:104B20006841473988418741E849AA6258D678D612
:104B300078D6B9D6F9DE3AE71AE7FAE6FAE6FAE6FF
:104B4000FAE6FAE6FAE6FAE6FAE6FAE6FAE6FAE665
:104B5000FAE6D9DED9DEFAE6FAE6D9DEB9DE98D68B
:104B6000FBC6FBCEFBCE1AC73AC7FACE16C678D61E
:104B7000DAD6DAD699D699D699CEB9CEB9D659D64B
:104B8000EC72C7490952A8490D7B119C2F836B6AAF
:104B9000EA594B6AED7A4A6AAC72ED824A72296A26
:104BA000A3510CB472ED52E567824BAB6FD452E562
:104BB0006BA3C8718E9AA7508420C6294539055128
:104BC00066398641A75165512449A559D5DD36E698
:104BD0001AFFB5D5A6518651C851E9512A524B52F8
:104BE000AA51EA51AB5A8B5A4A526C622C5AEB4981
:104BF000EA49EA518C6A4B6A0A62E951E9494B5227
:104C0000EA59CA51A951C9510A5A274188498749C5
:104C10004B620A5A46410639A8494A5A4B62E95141
:104C200047414741884987418B62495AF7C51BEF85
:104C3000FAE61AE73AE73AE71AE7FAE6FAE6FAE6B0
:104C4000FAE6FAE6FAE6FAE6FAE6FAE6FAE6FAE664
:104C5000FAE6DADED9DEFAE6FAE6D9DE98D678D6D2
:104C6000DBC6DBC6DBC61BC73AC7D9C6F6BD58CE06
:104C7000DAD6FAD6DAD699D6B9CED9CEB9CE58D6B2
:104C80000C73C749A749C951CD729093B093CD7A9F
:104C90000A5A2B626C6A8C72AD7A4B6A8C72ED8206
:104CA00047622249C992477A0772EB9ACA9AC66943
:104CB000245148698FB229718320062A074A6769FF
:104CC0008739C841C84987498751454151A47DFF6B
:104CD000DAEE3CF776C566410952C9496C5A2A4A50
:104CE000EB592A52AA52CB62AC720A62EB496D4A66
:104CF000CE52F2838941E630A951A9514B5A6B52E9
:104D0000C9510A5AA949A84926414641A8514B62AE
:104D1000C85146418749C8516B626B624741674140
:104D2000A94988494B5A4A5A6A62A74155B55CF766
:104D30001AE71AE71AE71AE71AE71AE71AE71AE76B
:104D4000FAE6FAE6FAE6FAE6FAE6FAE6FAE6FAE663
:104D5000DADEFAE6FAE6FAE6FAE6D9DE99D699D686
:104D6000FBC6DBC6FBCE1BCF1AC7B9C6D6BD58CE15
:104D7000DAD6FAD6DAD6B9D6D9CEDACEB9D679D647
:104D80002D7BA7496641C8510E7B2E83B1930E83BC
:104D90004B62EA594B6AAD720A626C6AAD72ED7A87
:104DA0002962AA72C661035125592559E448A338DE
:104DB00027594B8191C2CC910010C5210742265141
:104DC0002A4A2631A849C849A84909524A5A7AD6D6
:104DD0003DEF9BDE9FFFF5AC68394B524B52E941EA
:104DE000C9516E6B55A535BD4B82C648129494844B
:104DF000CE4A75840F636518C5300639C95105213F
:104E0000A84906310631E53026396B62E951464141
:104E10002639095A2A5A8C6A4B62474168418849A7
:104E20000B5A2B5A6B62E951E8496639D3A47CF7D7
:104E3000FAE61AE71AE71AE71AE71AE7FAE6FAE6CD
:104E4000FAE6FAE6F9E6F9E6FAE6FAE6FAE6FAE664
:104E5000FAE6FAE61AE7FADEB9DEB9D699D678D6D6
:104E6000FCC6DBCEFBCE1BCF1AC7F9CE37C657CE5A
:104E7000DAD6FAD6DAD6DAD6DACEFACEDAD699DEBB
:104E80008E83C851A749C8516F8B2E832E832F83E1
:104E90000B620B5ACA596C6AEA592B62EE7A8D7210
:104EA000EE82EC7A28626A7AC86987592A62884950
:104EB0006F8AD0A9D4E28C914220A5216529674947
:104EC0004631C841473988416741C8414631CC5ACB
:104ED0005EEF1EE7DCDEFDEECD626C5A0A520E7309
:104EE000B3A439CE5AD66F938450C9792A62369DBD
:104EF000B15B71537684AA39431863282539052993
:104F0000A428832087410952C8492639263988496F
:104F100009522A5AE951C949A9498849E9510A520D
:104F2000C951A94947390531A741095255B53BEF48
:104F3000FAE61ADF1AE71AE71AE71AE7FAE6FAE6D4
:104F4000FAE6FAE6FAE6F9E6F9E6FAE6FAE6FAE663
:104F5000FAE61AE7FAE699D678D678CE58CE58CE41
:104F6000FCC6FBCEFBCE1AC7FAC61AD778CE57CEF0
:104F7000D9D6F9CEFAD6FAD6FACEFACEDAD6DADE23
:104F8000D3B4085AC75109628F936F8BED7A6F8B38
:104F90006C6ACA590B624C6AAD724C6A4C6A0F83D8
:104FA000CE826F934E8BED82CD8ACD7A2A524C629F
:104FB00091A20FA974E2CEA101200319A631884164
:104FC000684106312639A8414739A841C841052121
:104FD000528C9FF7DCDE7FF798C50A52F293FAD520
:104FE000BAD697C5ED7A4B828879A879A869D0831B
:104FF000D57CD353B67C9173E528052983200531F0
:10500000C4204A52A420A320C428E52805318741A2
:105010008741A84167418841A84167412631A420C2
:1050200064206420E630263926394A5A79D63BEF87
:10503000FADE1ADF1ADF1AE71AE71AE71AE71AE7A1
:10504000F9E6F9E6FAE6F9E6F9E6FAE6FAE6FAE664
:10505000FAE6FAE6D9DE78CE37CE58CE78CE58CEFC
:105060001CCFFBCEFBCE1BC71AC71ACF37C658CEF4
:10507000FAD6F9CEFACE1AD71AD7FACEFADE9ADED7
:1050800096CD8A6AA751A7514E8B4E8BED822E8BFF
:105090004F8B6B6A6C6A4B6A6C6A0F83AD7A4C6A91
:1050A0006D72AD7ACD7A8C7ACD826C6AAD62328BBC
:1050B000D09131B134DA91BA4330A218252989410F
:1050C000884907398849263905318741A739C841B8
:1050D0004531D7BD3DEF3DEF7BDEF6B41BDEB9D5E4
:1050E000EF830D836C82EA796B8A09828C920A6A5B
:1050F000737C545C9574179DC839E4182429622088
:105100002D73F4AC00002110831821102110011020
:1051100042186318A4208318631863188418842025
:10512000C528C530063987414A5A4D7B59D63BEFD1
:105130001AE71ADF1ADF1AE71AE71AE71AE71BE776
:1051400019E7F9E6F9E6F9E6F9E6FAE61AE71AE701
:105150001AE7B9DE99D699D699D678CE58CE17C621
:10516000DBC6FBCEFBD61BCF1AC7FACE37C678CE2E
:105170001AD7FACE1AD7D9CEFACEFACEB9D6DAE6FF
:10518000D7D58E93A7518B724E932E8B4F936B7204
:105190009093CD7ACD7A4B6A0A62AD7A8D72AD72F8
:1051A0008E6A0B6A0B724C7AAA59CE72AE72339B1E
:1051B00032A211A9B7E213CB43388220A741AA49F2
:1051C000A951E638063946410952295A085286390A
:1051D0008639CF833DF7BBE6DCEEF6BC12A47093B4
:1051E000E9592B82CDA22A82086AE8710A8A6C8A60
:1051F0000E73B47C536CF68C9063A308E3208A6230
:10520000FFFFB39C000062106210A3208318A31854
:10521000631862186318A420C520E62806312631D9
:1052200088496841C9492A5A8B62AF83DBE6FBE6AD
:10523000FAE61ADF1AE71AE71AE71AE71AE71AE78F
:10524000F9E6F9E6F9E6FAE6FAE6FAE6FADED9DE92
:10525000FADE99D679D699D678CE79CE79CE58CE4F
:10526000FBC6FBCEFBD61ACF1AC7FACE37C658CE2E
:10527000FAD6FACE1ACFDACE1AD73BD71BDF38D6FA
:105280000C7B2D838B72C8610D8B8F9B2E936B7261
:105290004F930D839093CD7A6B6A0A622B626C7286
:1052A000EE6A4C72EB798548EA5933A4729B74B369
:1052B0004F89D3B175D275DB6FA360184639494960
:1052C0002749885187516B6AE851295A285A6962DF
:1052D000E749EB6A5DF7FCEEFCF677CD4749A9613B
:1052E0004E924D926B920C93EB82096AE660EA89CA
:1052F000ED925294116CF57C378DC9316108032908
:10530000BBD6B7B500006210A318A318E420252966
:10531000E420C420E5282631473147316739C941A7
:10532000A949A9494B5A8B624A5A8E7B1CEFFAE66F
:105330001AE71AE71AE71AE71AE71AE71AE71AE765
:105340001AE71AE7FAE6FAE6FAE61AE71AE7FAE6D9
:10535000D9DE99D699D699D678CE58CE78CE58CE71
:105360001CCFFBCEFBCEFACE1AC7FACE37C657CE2D
:105370001AD73ACFFACE1AD7DACEFACEFBDE30946D
:10538000A7512962D09B8B728B7A6F93909B4E931F
:105390008B720D836F8B6F8BAC72ED7A4B6A6B6A7D
:1053A0006B5A0B724969AA69AD7AD29B35C4D2AAED
:1053B00032A2B2A154C291BAB4CCE651C430AA61AF
:1053C000885988516749A851085A085A085A085AF2
:1053D0006541075279DE3CF7DBEEDCF6C9598859A6
:1053E000CFA9EC91A8712C93EC82AC7A4B8288798E
:1053F0008CAA6EA35284B46C177D2F5BA31860082F
:105400008A52FCDE82102108A3184108C4204631CC
:105410000529052926314631263106294731A8417B
:10542000C951EA516B628B620952AF835CF7FBE6AC
:105430001AE71AE71ADF1ADF1AE71AE7FAE6FAE6B6
:105440001AE7FAE6F9E6FAE6FAE6F9DED9DEB9DEB7
:1054500099D699D699D699D678CE58CE58CE58CED8
:10546000FBC6DBCEFBCE1ACF1ACFFAD637C657CE45
:105470001AD73ACFDAC61BD7DACEFBD638CE6E7B38
:105480008B722A62CC7A9093CC7A8C7AED824E938E
:10549000CD82CC7A0D83AC720D832E83CD7A8C7243
:1054A0000E7B8D8AF0A24D822F83EE8A92B3B1B229
:1054B00011A2B19994C270B255DDF1ACA22868591D
:1054C000A8598851C8516641A7498749A751A75192
:1054D0002962A64996BD3DF7BBE63DFF32A4675160
:1054E0004EA94FA22A7A8A7A8F9B8C7AAC826B9AC9
:1054F0000AAA8BA2D0839364177D9584A739E11003
:10550000E418B39CA3106210821082106210C420B1
:105510002531463146314631463167398839A9410E
:105520000A5A0A5A0A5209520952519C5CF7DAE6A1
:10553000FADEFADEFADEFADEFADEFAE6FAE6FAE693
:10554000FAE6FAE6FAE6FAE6FAE6D9DEB9D678D667
:1055500098D698D699D699D678CE58CE78CE78CE99
:1055600099BEBAC6FBD61ACF1ACFF9CE37C658CED7
:10557000FACE1ACFFACEFACE3CD75CDF34AD319CEE
:105580002F836B6A2A626F93F2A36F930E8BED8267
:105590008F938B728C728B72ED7A6B6AAC720E8306
:1055A0006C7A2FA3CE9A30937093B09BEEA28FA209
:1055B00071AACD8015D3D0B2D2CC97E6C551265171
:1055C0000962E859E851E851C849095AA851885177
:1055D0000A626741F08B7EF7FCE6DBEE3AE632A426
:1055E000EC88AC896D8A47590E932F936F9B8B9AE9
:1055F000E9A16AA24E8B7374F674F684EC5AA21079
:10560000A3100421210883188210A318831862189C
:10561000A320052966396739463946314631463176
:10562000C949C951A849A849C749B2A41CEFDAE63B
:10563000FAE61ADF1ADF1ADFFAE6FAE6FAE6FAE61F
:10564000FAE6D9DEB9DED9DED9DED9DED9DEB9DEB9
:10565000B9D699D698D699D658CE58CE78CE78CE97
:10566000BABEBAC6DACEFACE1ACFF9D637C657C600
:105670001AD73ACFFACEDACE1BD71BD71084319C7B
:1056800074A4ED726C6A0A628C7A6F93F2A3B09B79
:105690008F93ED7A8B726F8BAC72ED7ACD7A90939B
:1056A00013CC0FA3509B919B4F8BD1A3AC8ACFAA55
:1056B0000FA26FA172C2AFB2F2CC55E6AB8B244100
:1056C0002962085A295AE85109528849EA598951E8
:1056D000895188496B5A3DEF1CEF9ADEBBEE5AE6C2
:1056E000CE896C812E924961CE8AD1AB2EA32DB387
:1056F000ECB229926B829073946C567D93848420D3
:10570000831001080000621062186210C320A420F8
:10571000A3200531A841C949874126392631473997
:105720006841A849E9512A5AC74914B53CF71BEF0B
:105730001AE71AE71AE71AE71AE71AE7FAE6FAE6A3
:10574000D9DE98D678D678D698D6B9DED9DEB9DE45
:10575000D9DE99D698D678CE58CE58CE78CE78CE97
:10576000FBC6BAC6B9C6D9C61ACF1AD737C637C606
:10577000FACE3ACFFACE1BD7FBCEFBD61084D0930D
:1057800053A433A4708BEE7AAD7AAC7A8C7290937A
:10579000D19BD09BF19B2E832E83B093F19B0D7BED
:1057A000EEB290B32F93708BEE82B09BCC8A70BB1D
:1057B0004FB26FA972C2AEAAACA396EE10B5444127
:1057C000496A4962C7494A5AA8418849CA59AA59E7
:1057D00048494741A8417BD61CE7FCE6DBEE96C56D
:1057E0004B616C8170AACC79E750B0ABB0C36DBB94
:1057F0000CA34A8A0F9BB18B9374F36456950B628A
:105800002108410821086210C420C320A320A4203D
:10581000C428E42826316739674147396739884108
:1058200088498841E9516B62E85196C53CF7DAE650
:10583000FAE6FAE61ADF1ADFFAE6F9E6FAE6DAE657
:10584000DADED9DED9DED9DEDADED9DEB9DE99D606
:1058500099D678CE78CE98CE78CE78CE78CE78CECF
:105860003BCFD9C698C6DACEFACED9D635CE36C613
:105870001BD7FBC6FAC63AD7FAD69ACE8F83AC7A34
:10588000329C119C129C53AC90936F93ED826B727F
:105890008C720E7BEC72C8498B62119496C5109481
:1058A00013BC6E8B0F9C8E9BCDA2ADA2AD9A51B353
:1058B000D1BAD0A951BAEFBA70CCB3DD76DE474A7F
:1058C0008839EA49EA516849C95968510641A851DD
:1058D00087498749664155BD3CF7FBE63CEF96BDDD
:1058E000099B0679EB88939ACA308941B0AB6DBBAE
:1058F0006AA26B8A4C72EF7AF283737C148D717496
:1059000021084208410841108218E428A318C42045
:1059100005292531A4208741A84167418741464197
:1059200026414749A749295A495A37CE1BE7DADEAB
:10593000FADEFADEFAE6FADEDADEFADEFADEFADEBF
:10594000FADEFADEDADEDADEB9D699D6BAD699D63A
:1059500079CE79CE78CE99CE99CE57C6B9CEB9CE7A
:105960001BC71ACFD9CE99C699C6F9D656CE36C618
:10597000FACE1BC71BC71AD71BD7DBD6F18BE96141
:105980002E7B52A4B0934F8BF19BB4B4F19BB09398
:10599000ED7ACD724A622639A3281194F8D5B3ACBA
:1059A0000E938F936E93EC920EABADA270B350B387
:1059B0002FAA2D9951BAF0BA4DAB52D5B7EE6B73F1
:1059C0006739A841C949C9516849E6402749A851E2
:1059D00067494A626641F08B7DFFFBE69ADE9ADEFC
:1059E0004CB32BA22B8131923072A73890A38EBB7F
:1059F0004DB36A920B7A8E7AB28373849384769DC8
:105A00008731000042104210A318E428A320E420AC
:105A1000E428E52826316739A84126394641464120
:105A20008851A851E951495AAA6299DE3BEFFAE63A
:105A30001AE7FBE6FBE6FAE61AE71AE71AE71AE7BF
:105A4000FADEFADEDADEDADEB9D679D699D658CEC3
:105A500079CE79CE99CE99D699CE57C6D9D6B9CE28
:105A60001AC73BD7FAD6BAC699C6D9D656CE36C6C5
:105A70001BCF3CCF1BCFF9CEDACEDBD6529C2A6AA5
:105A8000CD724F83B1936F8B4B6ACD7A4F8B4F8B17
:105A90000E7B8C6A09522639263993A4F9CD15B5A7
:105AA0006F93D1A3D1B32EA3D1BB2EA34EAB50BBCA
:105AB000AD996E9992C2D0B20882F1C4B7EEF0AC43
:105AC00083206741A849884947494749C9594749F7
:105AD0006749C95125398B621CF7FBEEBBE61CEF09
